{
  "contractName": "TweetStorage",
  "abi": [
    {
      "inputs": [],
      "name": "controllerAddr",
      "outputs": [
        {
          "internalType": "address",
          "name": "",
          "type": "address"
        }
      ],
      "stateMutability": "view",
      "type": "function",
      "constant": true
    },
    {
      "inputs": [],
      "name": "ownerAddr",
      "outputs": [
        {
          "internalType": "address",
          "name": "",
          "type": "address"
        }
      ],
      "stateMutability": "view",
      "type": "function",
      "constant": true
    },
    {
      "inputs": [
        {
          "internalType": "address",
          "name": "_controllerAddr",
          "type": "address"
        }
      ],
      "name": "setControllerAddr",
      "outputs": [],
      "stateMutability": "nonpayable",
      "type": "function"
    },
    {
      "inputs": [
        {
          "internalType": "address",
          "name": "_newOwner",
          "type": "address"
        }
      ],
      "name": "transferOwnership",
      "outputs": [],
      "stateMutability": "nonpayable",
      "type": "function"
    },
    {
      "inputs": [
        {
          "internalType": "uint256",
          "name": "",
          "type": "uint256"
        }
      ],
      "name": "tweets",
      "outputs": [
        {
          "internalType": "uint256",
          "name": "id",
          "type": "uint256"
        },
        {
          "internalType": "string",
          "name": "text",
          "type": "string"
        },
        {
          "internalType": "uint256",
          "name": "userId",
          "type": "uint256"
        },
        {
          "internalType": "uint256",
          "name": "postedAt",
          "type": "uint256"
        }
      ],
      "stateMutability": "view",
      "type": "function",
      "constant": true
    },
    {
      "inputs": [
        {
          "internalType": "uint256",
          "name": "_userId",
          "type": "uint256"
        },
        {
          "internalType": "string",
          "name": "_text",
          "type": "string"
        }
      ],
      "name": "createTweet",
      "outputs": [
        {
          "internalType": "uint256",
          "name": "",
          "type": "uint256"
        }
      ],
      "stateMutability": "nonpayable",
      "type": "function"
    },
    {
      "inputs": [
        {
          "internalType": "uint256",
          "name": "_userId",
          "type": "uint256"
        }
      ],
      "name": "getTweetIdsFromUser",
      "outputs": [
        {
          "internalType": "uint256[]",
          "name": "",
          "type": "uint256[]"
        }
      ],
      "stateMutability": "view",
      "type": "function",
      "constant": true
    }
  ],
  "bytecode": "0x6080604052600060045534801561001557600080fd5b50336000806101000a81548173ffffffffffffffffffffffffffffffffffffffff021916908373ffffffffffffffffffffffffffffffffffffffff160217905550610876806100656000396000f3fe608060405234801561001057600080fd5b506004361061007d5760003560e01c80639c675eaa1161005b5780639c675eaa14610222578063e8d857b014610256578063ee255c5714610312578063f2fde38b146103465761007d565b8063317aae1b146100825780636981fa7d146101055780637cc82f2014610149575b600080fd5b6100ae6004803603602081101561009857600080fd5b810190808035906020019092919050505061038a565b6040518080602001828103825283818151815260200191508051906020019060200280838360005b838110156100f15780820151818401526020810190506100d6565b505050509050019250505060405180910390f35b6101476004803603602081101561011b57600080fd5b81019080803573ffffffffffffffffffffffffffffffffffffffff1690602001909291905050506103f5565b005b61020c6004803603604081101561015f57600080fd5b81019080803590602001909291908035906020019064010000000081111561018657600080fd5b82018360208201111561019857600080fd5b803590602001918460018302840111640100000000831117156101ba57600080fd5b91908080601f016020809104026020016040519081016040528093929190818152602001838380828437600081840152601f19601f820116905080830192505050505050509192919290505050610491565b6040518082815260200191505060405180910390f35b61022a6105bc565b604051808273ffffffffffffffffffffffffffffffffffffffff16815260200191505060405180910390f35b6102826004803603602081101561026c57600080fd5b81019080803590602001909291905050506105e0565b6040518085815260200180602001848152602001838152602001828103825285818151815260200191508051906020019080838360005b838110156102d45780820151818401526020810190506102b9565b50505050905090810190601f1680156103015780820380516001836020036101000a031916815260200191505b509550505050505060405180910390f35b61031a6106a8565b604051808273ffffffffffffffffffffffffffffffffffffffff16815260200191505060405180910390f35b6103886004803603602081101561035c57600080fd5b81019080803573ffffffffffffffffffffffffffffffffffffffff1690602001909291905050506106ce565b005b6060600360008381526020019081526020016000208054806020026020016040519081016040528092919081815260200182805480156103e957602002820191906000526020600020905b8154815260200190600101908083116103d5575b50505050509050919050565b60008054906101000a900473ffffffffffffffffffffffffffffffffffffffff1673ffffffffffffffffffffffffffffffffffffffff163373ffffffffffffffffffffffffffffffffffffffff161461044d57600080fd5b80600160006101000a81548173ffffffffffffffffffffffffffffffffffffffff021916908373ffffffffffffffffffffffffffffffffffffffff16021790555050565b6000600160009054906101000a900473ffffffffffffffffffffffffffffffffffffffff1673ffffffffffffffffffffffffffffffffffffffff163373ffffffffffffffffffffffffffffffffffffffff16146104ed57600080fd5b600460008154809291906001019190505550604051806080016040528060045481526020018381526020018481526020014281525060026000600454815260200190815260200160002060008201518160000155602082015181600101908051906020019061055d9291906107a3565b506040820151816002015560608201518160030155905050600360008481526020019081526020016000206004549080600181540180825580915050600190039060005260206000200160009091909190915055600454905092915050565b60008054906101000a900473ffffffffffffffffffffffffffffffffffffffff1681565b6002602052806000526040600020600091509050806000015490806001018054600181600116156101000203166002900480601f0160208091040260200160405190810160405280929190818152602001828054600181600116156101000203166002900480156106925780601f1061066757610100808354040283529160200191610692565b820191906000526020600020905b81548152906001019060200180831161067557829003601f168201915b5050505050908060020154908060030154905084565b600160009054906101000a900473ffffffffffffffffffffffffffffffffffffffff1681565b60008054906101000a900473ffffffffffffffffffffffffffffffffffffffff1673ffffffffffffffffffffffffffffffffffffffff163373ffffffffffffffffffffffffffffffffffffffff161461072657600080fd5b600073ffffffffffffffffffffffffffffffffffffffff168173ffffffffffffffffffffffffffffffffffffffff16141561076057600080fd5b806000806101000a81548173ffffffffffffffffffffffffffffffffffffffff021916908373ffffffffffffffffffffffffffffffffffffffff16021790555050565b828054600181600116156101000203166002900490600052602060002090601f016020900481019282601f106107e457805160ff1916838001178555610812565b82800160010185558215610812579182015b828111156108115782518255916020019190600101906107f6565b5b50905061081f9190610823565b5090565b5b8082111561083c576000816000905550600101610824565b509056fea26469706673582212204b9f5996447905b07b1f702fb34c4efb239702fb235a1fbeff09904f8c6ce0ef64736f6c634300060c0033",
  "source": "// SPDX-License-Identifier: MIT\r\npragma solidity >=0.6.0 <=0.8.0;\r\n\r\n// Import the BaseStorage contract\r\nimport \"../helpers/BaseStorage.sol\";\r\n\r\ncontract TweetStorage is BaseStorage {\r\n\tmapping(uint256 => Tweet) public tweets;\r\n\tmapping(uint256 => uint256[]) userTweetIds;\r\n\r\n\tstruct Tweet {\r\n\t\tuint256 id;\r\n\t\tstring text;\r\n\t\tuint256 userId;\r\n\t\tuint256 postedAt;\r\n\t}\r\n\r\n\tuint256 latestTweetId = 0;\r\n\r\n\tfunction createTweet(uint256 _userId, string memory _text)\r\n\t\tpublic\r\n\t\tonlyController\r\n\t\treturns (uint256)\r\n\t{\r\n\t\tlatestTweetId++;\r\n\r\n\t\ttweets[latestTweetId] = Tweet(\r\n\t\t\tlatestTweetId,\r\n\t\t\t_text,\r\n\t\t\t_userId,\r\n\t\t\tblock.timestamp\r\n\t\t);\r\n\t\tuserTweetIds[_userId].push(latestTweetId);\r\n\r\n\t\treturn latestTweetId;\r\n\t}\r\n\r\n\tfunction getTweetIdsFromUser(uint256 _userId)\r\n\t\tpublic\r\n\t\tview\r\n\t\treturns (uint256[] memory)\r\n\t{\r\n\t\treturn userTweetIds[_userId];\r\n\t}\r\n}\r\n",
  "sourcePath": "C:\\Users\\camel\\OneDrive\\Documents\\EPITA - Master\\#S2\\Blockchain\\exam\\twitter\\contracts\\tweets\\TweetStorage.sol",
  "compiler": {
    "name": "solc",
    "version": "0.6.12+commit.27d51765.Emscripten.clang"
  },
  "schemaVersion": "3.0.22",
  "updatedAt": "2021-02-20T08:42:11.809Z",
  "networkType": "ethereum",
  "devdoc": {
    "kind": "dev",
    "methods": {},
    "version": 1
  },
  "userdoc": {
    "kind": "user",
    "methods": {},
    "version": 1
  }
}