{
  "contractName": "TweetController",
  "abi": [
    {
      "inputs": [],
      "name": "ownerAddr",
      "outputs": [
        {
          "internalType": "address",
          "name": "",
          "type": "address"
        }
      ],
      "stateMutability": "view",
      "type": "function",
      "constant": true
    },
    {
      "inputs": [
        {
          "internalType": "address",
          "name": "_managerAddr",
          "type": "address"
        }
      ],
      "name": "setManagerAddr",
      "outputs": [],
      "stateMutability": "nonpayable",
      "type": "function"
    },
    {
      "inputs": [
        {
          "internalType": "address",
          "name": "_newOwner",
          "type": "address"
        }
      ],
      "name": "transferOwnership",
      "outputs": [],
      "stateMutability": "nonpayable",
      "type": "function"
    },
    {
      "inputs": [
        {
          "internalType": "string",
          "name": "_text",
          "type": "string"
        }
      ],
      "name": "createTweet",
      "outputs": [
        {
          "internalType": "uint256",
          "name": "",
          "type": "uint256"
        }
      ],
      "stateMutability": "nonpayable",
      "type": "function"
    }
  ],
  "bytecode": "0x608060405234801561001057600080fd5b50336000806101000a81548173ffffffffffffffffffffffffffffffffffffffff021916908373ffffffffffffffffffffffffffffffffffffffff160217905550610717806100606000396000f3fe608060405234801561001057600080fd5b506004361061004c5760003560e01c80637978b231146100515780637c9cd2bc146100955780639c675eaa14610164578063f2fde38b14610198575b600080fd5b6100936004803603602081101561006757600080fd5b81019080803573ffffffffffffffffffffffffffffffffffffffff1690602001909291905050506101dc565b005b61014e600480360360208110156100ab57600080fd5b81019080803590602001906401000000008111156100c857600080fd5b8201836020820111156100da57600080fd5b803590602001918460018302840111640100000000831117156100fc57600080fd5b91908080601f016020809104026020016040519081016040528093929190818152602001838380828437600081840152601f19601f820116905080830192505050505050509192919290505050610278565b6040518082815260200191505060405180910390f35b61016c6105e8565b604051808273ffffffffffffffffffffffffffffffffffffffff16815260200191505060405180910390f35b6101da600480360360208110156101ae57600080fd5b81019080803573ffffffffffffffffffffffffffffffffffffffff16906020019092919050505061060c565b005b60008054906101000a900473ffffffffffffffffffffffffffffffffffffffff1673ffffffffffffffffffffffffffffffffffffffff163373ffffffffffffffffffffffffffffffffffffffff161461023457600080fd5b80600160006101000a81548173ffffffffffffffffffffffffffffffffffffffff021916908373ffffffffffffffffffffffffffffffffffffffff16021790555050565b600080600160009054906101000a900473ffffffffffffffffffffffffffffffffffffffff16905060008173ffffffffffffffffffffffffffffffffffffffff1663bf40fac16040518163ffffffff1660e01b815260040180806020018281038252600b8152602001807f5573657253746f7261676500000000000000000000000000000000000000000081525060200191505060206040518083038186803b15801561032457600080fd5b505afa158015610338573d6000803e3d6000fd5b505050506040513d602081101561034e57600080fd5b81019080805190602001909291905050509050600081905060008173ffffffffffffffffffffffffffffffffffffffff166382d38954336040518263ffffffff1660e01b8152600401808273ffffffffffffffffffffffffffffffffffffffff16815260200191505060206040518083038186803b1580156103cf57600080fd5b505afa1580156103e3573d6000803e3d6000fd5b505050506040513d60208110156103f957600080fd5b81019080805190602001909291905050509050600081141561041a57600080fd5b60008473ffffffffffffffffffffffffffffffffffffffff1663bf40fac16040518163ffffffff1660e01b815260040180806020018281038252600c8152602001807f547765657453746f72616765000000000000000000000000000000000000000081525060200191505060206040518083038186803b15801561049e57600080fd5b505afa1580156104b2573d6000803e3d6000fd5b505050506040513d60208110156104c857600080fd5b8101908080519060200190929190505050905060008190508073ffffffffffffffffffffffffffffffffffffffff16637cc82f20848a6040518363ffffffff1660e01b81526004018083815260200180602001828103825283818151815260200191508051906020019080838360005b83811015610553578082015181840152602081019050610538565b50505050905090810190601f1680156105805780820380516001836020036101000a031916815260200191505b509350505050602060405180830381600087803b1580156105a057600080fd5b505af11580156105b4573d6000803e3d6000fd5b505050506040513d60208110156105ca57600080fd5b81019080805190602001909291905050509650505050505050919050565b60008054906101000a900473ffffffffffffffffffffffffffffffffffffffff1681565b60008054906101000a900473ffffffffffffffffffffffffffffffffffffffff1673ffffffffffffffffffffffffffffffffffffffff163373ffffffffffffffffffffffffffffffffffffffff161461066457600080fd5b600073ffffffffffffffffffffffffffffffffffffffff168173ffffffffffffffffffffffffffffffffffffffff16141561069e57600080fd5b806000806101000a81548173ffffffffffffffffffffffffffffffffffffffff021916908373ffffffffffffffffffffffffffffffffffffffff1602179055505056fea26469706673582212209a67ccaf993c7279e8871613c0cda4e270c64b2fad25d27814a3e393e271560564736f6c634300060c0033",
  "source": "// SPDX-License-Identifier: MIT\r\npragma solidity >=0.6.0 <=0.8.0;\r\n\r\nimport \"../helpers/BaseController.sol\";\r\nimport \"../ContractManager.sol\";\r\nimport \"./TweetStorage.sol\";\r\nimport \"../users/UserStorage.sol\";\r\n\r\ncontract TweetController is BaseController {\r\n\tfunction createTweet(string memory _text) public returns (uint256) {\r\n\t\tContractManager _manager = ContractManager(managerAddr);\r\n\r\n\t\taddress _userStorageAddr = _manager.getAddress(\"UserStorage\");\r\n\t\tUserStorage _userStorage = UserStorage(_userStorageAddr);\r\n\r\n\t\t// Get the user ID from the address\r\n\t\tuint256 _userId = _userStorage.addresses(msg.sender);\r\n\r\n\t\t// Make sure the user ID isn't null\r\n\t\trequire(_userId != 0);\r\n\r\n\t\taddress _tweetStorageAddr = _manager.getAddress(\"TweetStorage\");\r\n\t\tTweetStorage _tweetStorage = TweetStorage(_tweetStorageAddr);\r\n\r\n\t\treturn _tweetStorage.createTweet(_userId, _text);\r\n\t}\r\n}\r\n",
  "sourcePath": "C:/Users/camel/OneDrive/Documents/EPITA - Master/#S2/Blockchain/exam/twitter/contracts/tweets/TweetController.sol",
  "compiler": {
    "name": "solc",
    "version": "0.6.12+commit.27d51765.Emscripten.clang"
  },
  "schemaVersion": "3.0.22",
  "updatedAt": "2021-02-20T08:42:11.802Z",
  "networkType": "ethereum",
  "devdoc": {
    "kind": "dev",
    "methods": {},
    "version": 1
  },
  "userdoc": {
    "kind": "user",
    "methods": {},
    "version": 1
  }
}