{
  "contractName": "UserStorage",
  "abi": [
    {
      "inputs": [
        {
          "internalType": "address",
          "name": "",
          "type": "address"
        }
      ],
      "name": "addresses",
      "outputs": [
        {
          "internalType": "uint256",
          "name": "",
          "type": "uint256"
        }
      ],
      "stateMutability": "view",
      "type": "function",
      "constant": true
    },
    {
      "inputs": [],
      "name": "controllerAddr",
      "outputs": [
        {
          "internalType": "address",
          "name": "",
          "type": "address"
        }
      ],
      "stateMutability": "view",
      "type": "function",
      "constant": true
    },
    {
      "inputs": [],
      "name": "ownerAddr",
      "outputs": [
        {
          "internalType": "address",
          "name": "",
          "type": "address"
        }
      ],
      "stateMutability": "view",
      "type": "function",
      "constant": true
    },
    {
      "inputs": [
        {
          "internalType": "uint256",
          "name": "",
          "type": "uint256"
        }
      ],
      "name": "profiles",
      "outputs": [
        {
          "internalType": "uint256",
          "name": "id",
          "type": "uint256"
        },
        {
          "internalType": "bytes32",
          "name": "username",
          "type": "bytes32"
        },
        {
          "internalType": "bytes32",
          "name": "firstName",
          "type": "bytes32"
        },
        {
          "internalType": "bytes32",
          "name": "lastName",
          "type": "bytes32"
        },
        {
          "internalType": "string",
          "name": "bio",
          "type": "string"
        },
        {
          "internalType": "string",
          "name": "gravatarEmail",
          "type": "string"
        }
      ],
      "stateMutability": "view",
      "type": "function",
      "constant": true
    },
    {
      "inputs": [
        {
          "internalType": "address",
          "name": "_controllerAddr",
          "type": "address"
        }
      ],
      "name": "setControllerAddr",
      "outputs": [],
      "stateMutability": "nonpayable",
      "type": "function"
    },
    {
      "inputs": [
        {
          "internalType": "address",
          "name": "_newOwner",
          "type": "address"
        }
      ],
      "name": "transferOwnership",
      "outputs": [],
      "stateMutability": "nonpayable",
      "type": "function"
    },
    {
      "inputs": [
        {
          "internalType": "bytes32",
          "name": "",
          "type": "bytes32"
        }
      ],
      "name": "usernames",
      "outputs": [
        {
          "internalType": "uint256",
          "name": "",
          "type": "uint256"
        }
      ],
      "stateMutability": "view",
      "type": "function",
      "constant": true
    },
    {
      "inputs": [
        {
          "internalType": "address",
          "name": "_address",
          "type": "address"
        },
        {
          "internalType": "bytes32",
          "name": "_username",
          "type": "bytes32"
        },
        {
          "internalType": "bytes32",
          "name": "_firstName",
          "type": "bytes32"
        },
        {
          "internalType": "bytes32",
          "name": "_lastName",
          "type": "bytes32"
        },
        {
          "internalType": "string",
          "name": "_bio",
          "type": "string"
        },
        {
          "internalType": "string",
          "name": "_gravatarEmail",
          "type": "string"
        }
      ],
      "name": "createUser",
      "outputs": [
        {
          "internalType": "uint256",
          "name": "",
          "type": "uint256"
        }
      ],
      "stateMutability": "nonpayable",
      "type": "function"
    }
  ],
  "bytecode": "0x6080604052600060055534801561001557600080fd5b50336000806101000a81548173ffffffffffffffffffffffffffffffffffffffff021916908373ffffffffffffffffffffffffffffffffffffffff160217905550610a9a806100656000396000f3fe608060405234801561001057600080fd5b50600436106100885760003560e01c8063d399e63d1161005b578063d399e63d1461028c578063ec4d88d714610430578063ee255c5714610472578063f2fde38b146104a657610088565b80636981fa7d1461008d57806382d38954146100d15780639c675eaa14610129578063c36fe3d61461015d575b600080fd5b6100cf600480360360208110156100a357600080fd5b81019080803573ffffffffffffffffffffffffffffffffffffffff1690602001909291905050506104ea565b005b610113600480360360208110156100e757600080fd5b81019080803573ffffffffffffffffffffffffffffffffffffffff169060200190929190505050610586565b6040518082815260200191505060405180910390f35b61013161059e565b604051808273ffffffffffffffffffffffffffffffffffffffff16815260200191505060405180910390f35b6101896004803603602081101561017357600080fd5b81019080803590602001909291905050506105c2565b604051808781526020018681526020018581526020018481526020018060200180602001838103835285818151815260200191508051906020019080838360005b838110156101e55780820151818401526020810190506101ca565b50505050905090810190601f1680156102125780820380516001836020036101000a031916815260200191505b50838103825284818151815260200191508051906020019080838360005b8381101561024b578082015181840152602081019050610230565b50505050905090810190601f1680156102785780820380516001836020036101000a031916815260200191505b509850505050505050505060405180910390f35b61041a600480360360c08110156102a257600080fd5b81019080803573ffffffffffffffffffffffffffffffffffffffff169060200190929190803590602001909291908035906020019092919080359060200190929190803590602001906401000000008111156102fd57600080fd5b82018360208201111561030f57600080fd5b8035906020019184600183028401116401000000008311171561033157600080fd5b91908080601f016020809104026020016040519081016040528093929190818152602001838380828437600081840152601f19601f8201169050808301925050505050505091929192908035906020019064010000000081111561039457600080fd5b8201836020820111156103a657600080fd5b803590602001918460018302840111640100000000831117156103c857600080fd5b91908080601f016020809104026020016040519081016040528093929190818152602001838380828437600081840152601f19601f82011690508083019250505050505050919291929050505061072e565b6040518082815260200191505060405180910390f35b61045c6004803603602081101561044657600080fd5b81019080803590602001909291905050506108b4565b6040518082815260200191505060405180910390f35b61047a6108cc565b604051808273ffffffffffffffffffffffffffffffffffffffff16815260200191505060405180910390f35b6104e8600480360360208110156104bc57600080fd5b81019080803573ffffffffffffffffffffffffffffffffffffffff1690602001909291905050506108f2565b005b60008054906101000a900473ffffffffffffffffffffffffffffffffffffffff1673ffffffffffffffffffffffffffffffffffffffff163373ffffffffffffffffffffffffffffffffffffffff161461054257600080fd5b80600160006101000a81548173ffffffffffffffffffffffffffffffffffffffff021916908373ffffffffffffffffffffffffffffffffffffffff16021790555050565b60036020528060005260406000206000915090505481565b60008054906101000a900473ffffffffffffffffffffffffffffffffffffffff1681565b6002602052806000526040600020600091509050806000015490806001015490806002015490806003015490806004018054600181600116156101000203166002900480601f0160208091040260200160405190810160405280929190818152602001828054600181600116156101000203166002900480156106865780601f1061065b57610100808354040283529160200191610686565b820191906000526020600020905b81548152906001019060200180831161066957829003601f168201915b505050505090806005018054600181600116156101000203166002900480601f0160208091040260200160405190810160405280929190818152602001828054600181600116156101000203166002900480156107245780601f106106f957610100808354040283529160200191610724565b820191906000526020600020905b81548152906001019060200180831161070757829003601f168201915b5050505050905086565b6000600160009054906101000a900473ffffffffffffffffffffffffffffffffffffffff1673ffffffffffffffffffffffffffffffffffffffff163373ffffffffffffffffffffffffffffffffffffffff161461078a57600080fd5b6005600081548092919060010191905055506040518060c001604052806005548152602001878152602001868152602001858152602001848152602001838152506002600060055481526020019081526020016000206000820151816000015560208201518160010155604082015181600201556060820151816003015560808201518160040190805190602001906108249291906109c7565b5060a08201518160050190805190602001906108419291906109c7565b50905050600554600360008973ffffffffffffffffffffffffffffffffffffffff1673ffffffffffffffffffffffffffffffffffffffff16815260200190815260200160002081905550600554600460008881526020019081526020016000208190555060055490509695505050505050565b60046020528060005260406000206000915090505481565b600160009054906101000a900473ffffffffffffffffffffffffffffffffffffffff1681565b60008054906101000a900473ffffffffffffffffffffffffffffffffffffffff1673ffffffffffffffffffffffffffffffffffffffff163373ffffffffffffffffffffffffffffffffffffffff161461094a57600080fd5b600073ffffffffffffffffffffffffffffffffffffffff168173ffffffffffffffffffffffffffffffffffffffff16141561098457600080fd5b806000806101000a81548173ffffffffffffffffffffffffffffffffffffffff021916908373ffffffffffffffffffffffffffffffffffffffff16021790555050565b828054600181600116156101000203166002900490600052602060002090601f016020900481019282601f10610a0857805160ff1916838001178555610a36565b82800160010185558215610a36579182015b82811115610a35578251825591602001919060010190610a1a565b5b509050610a439190610a47565b5090565b5b80821115610a60576000816000905550600101610a48565b509056fea26469706673582212207917bd97941bcde956565b77ee390018efc6644dd6d65d7d6f65b3044454444364736f6c634300060c0033",
  "source": "// SPDX-License-Identifier: MIT\r\npragma solidity >=0.6.0 <=0.8.0;\r\n\r\nimport \"../helpers/BaseStorage.sol\";\r\n\r\ncontract UserStorage is BaseStorage {\r\n\tmapping(uint256 => Profile) public profiles;\r\n\tmapping(address => uint256) public addresses;\r\n\tmapping(bytes32 => uint256) public usernames;\r\n\r\n\tstruct Profile {\r\n\t\tuint256 id;\r\n\t\tbytes32 username;\r\n\t\tbytes32 firstName;\r\n\t\tbytes32 lastName;\r\n\t\tstring bio;\r\n\t\tstring gravatarEmail;\r\n\t}\r\n\r\n\tuint256 latestUserId = 0;\r\n\r\n\tfunction createUser(\r\n\t\taddress _address,\r\n\t\tbytes32 _username,\r\n\t\tbytes32 _firstName,\r\n\t\tbytes32 _lastName,\r\n\t\tstring memory _bio,\r\n\t\tstring memory _gravatarEmail\r\n\t) public onlyController returns (uint256) {\r\n\t\tlatestUserId++;\r\n\r\n\t\tprofiles[latestUserId] = Profile(\r\n\t\t\tlatestUserId,\r\n\t\t\t_username,\r\n\t\t\t_firstName,\r\n\t\t\t_lastName,\r\n\t\t\t_bio,\r\n\t\t\t_gravatarEmail\r\n\t\t);\r\n\r\n\t\taddresses[_address] = latestUserId;\r\n\t\tusernames[_username] = latestUserId;\r\n\r\n\t\treturn latestUserId;\r\n\t}\r\n}\r\n",
  "sourcePath": "C:\\Users\\camel\\OneDrive\\Documents\\EPITA - Master\\#S2\\Blockchain\\exam\\twitter\\contracts\\users\\UserStorage.sol",
  "compiler": {
    "name": "solc",
    "version": "0.6.12+commit.27d51765.Emscripten.clang"
  },
  "schemaVersion": "3.0.22",
  "updatedAt": "2021-02-20T08:42:10.139Z",
  "networkType": "ethereum",
  "devdoc": {
    "kind": "dev",
    "methods": {},
    "version": 1
  },
  "userdoc": {
    "kind": "user",
    "methods": {},
    "version": 1
  }
}